{
    "_format": "hh-sol-artifact-1",
    "contractName": "TreasureHunt",
    "sourceName": "contracts/TreasureHunt.sol",
    "abi": [
        {
            "inputs": [
                {
                    "internalType": "address",
                    "name": "_airnodeRrp",
                    "type": "address"
                },
                {
                    "internalType": "address",
                    "name": "_pudgyPengu",
                    "type": "address"
                },
                {
                    "internalType": "address",
                    "name": "_lilPengu",
                    "type": "address"
                },
                {
                    "internalType": "address",
                    "name": "_rogs",
                    "type": "address"
                },
                {
                    "internalType": "string",
                    "name": "_nftURI",
                    "type": "string"
                }
            ],
            "stateMutability": "nonpayable",
            "type": "constructor"
        },
        {
            "anonymous": false,
            "inputs": [
                {
                    "indexed": true,
                    "internalType": "address",
                    "name": "account",
                    "type": "address"
                },
                {
                    "indexed": true,
                    "internalType": "address",
                    "name": "operator",
                    "type": "address"
                },
                {
                    "indexed": false,
                    "internalType": "bool",
                    "name": "approved",
                    "type": "bool"
                }
            ],
            "name": "ApprovalForAll",
            "type": "event"
        },
        {
            "anonymous": false,
            "inputs": [
                {
                    "indexed": true,
                    "internalType": "address",
                    "name": "previousOwner",
                    "type": "address"
                },
                {
                    "indexed": true,
                    "internalType": "address",
                    "name": "newOwner",
                    "type": "address"
                }
            ],
            "name": "OwnershipTransferred",
            "type": "event"
        },
        {
            "anonymous": false,
            "inputs": [
                {
                    "indexed": false,
                    "internalType": "address",
                    "name": "account",
                    "type": "address"
                }
            ],
            "name": "Paused",
            "type": "event"
        },
        {
            "anonymous": false,
            "inputs": [
                {
                    "indexed": true,
                    "internalType": "bytes32",
                    "name": "requestId",
                    "type": "bytes32"
                },
                {
                    "indexed": false,
                    "internalType": "uint256[]",
                    "name": "response",
                    "type": "uint256[]"
                }
            ],
            "name": "ReceivedUint256Array",
            "type": "event"
        },
        {
            "anonymous": false,
            "inputs": [
                {
                    "indexed": true,
                    "internalType": "bytes32",
                    "name": "requestId",
                    "type": "bytes32"
                },
                {
                    "indexed": false,
                    "internalType": "uint256",
                    "name": "size",
                    "type": "uint256"
                }
            ],
            "name": "RequestedUint256Array",
            "type": "event"
        },
        {
            "anonymous": false,
            "inputs": [
                {
                    "indexed": true,
                    "internalType": "address",
                    "name": "operator",
                    "type": "address"
                },
                {
                    "indexed": true,
                    "internalType": "address",
                    "name": "from",
                    "type": "address"
                },
                {
                    "indexed": true,
                    "internalType": "address",
                    "name": "to",
                    "type": "address"
                },
                {
                    "indexed": false,
                    "internalType": "uint256[]",
                    "name": "ids",
                    "type": "uint256[]"
                },
                {
                    "indexed": false,
                    "internalType": "uint256[]",
                    "name": "values",
                    "type": "uint256[]"
                }
            ],
            "name": "TransferBatch",
            "type": "event"
        },
        {
            "anonymous": false,
            "inputs": [
                {
                    "indexed": true,
                    "internalType": "address",
                    "name": "operator",
                    "type": "address"
                },
                {
                    "indexed": true,
                    "internalType": "address",
                    "name": "from",
                    "type": "address"
                },
                {
                    "indexed": true,
                    "internalType": "address",
                    "name": "to",
                    "type": "address"
                },
                {
                    "indexed": false,
                    "internalType": "uint256",
                    "name": "id",
                    "type": "uint256"
                },
                {
                    "indexed": false,
                    "internalType": "uint256",
                    "name": "value",
                    "type": "uint256"
                }
            ],
            "name": "TransferSingle",
            "type": "event"
        },
        {
            "anonymous": false,
            "inputs": [
                {
                    "indexed": false,
                    "internalType": "address",
                    "name": "_from",
                    "type": "address"
                },
                {
                    "indexed": false,
                    "internalType": "uint256[]",
                    "name": "_tokenIds",
                    "type": "uint256[]"
                },
                {
                    "indexed": false,
                    "internalType": "uint256[]",
                    "name": "_amounts",
                    "type": "uint256[]"
                }
            ],
            "name": "TreasureFound",
            "type": "event"
        },
        {
            "anonymous": false,
            "inputs": [
                {
                    "indexed": false,
                    "internalType": "string",
                    "name": "value",
                    "type": "string"
                },
                {
                    "indexed": true,
                    "internalType": "uint256",
                    "name": "id",
                    "type": "uint256"
                }
            ],
            "name": "URI",
            "type": "event"
        },
        {
            "anonymous": false,
            "inputs": [
                {
                    "indexed": false,
                    "internalType": "address",
                    "name": "account",
                    "type": "address"
                }
            ],
            "name": "Unpaused",
            "type": "event"
        },
        {
            "anonymous": false,
            "inputs": [
                {
                    "indexed": false,
                    "internalType": "address",
                    "name": "_from",
                    "type": "address"
                },
                {
                    "indexed": false,
                    "internalType": "uint256",
                    "name": "amount",
                    "type": "uint256"
                }
            ],
            "name": "WentFishing",
            "type": "event"
        },
        {
            "inputs": [],
            "name": "TreasureNFT",
            "outputs": [
                {
                    "internalType": "string",
                    "name": "",
                    "type": "string"
                }
            ],
            "stateMutability": "view",
            "type": "function"
        },
        {
            "inputs": [],
            "name": "airnode",
            "outputs": [
                {
                    "internalType": "address",
                    "name": "",
                    "type": "address"
                }
            ],
            "stateMutability": "view",
            "type": "function"
        },
        {
            "inputs": [],
            "name": "airnodeRrp",
            "outputs": [
                {
                    "internalType": "contract IAirnodeRrpV0",
                    "name": "",
                    "type": "address"
                }
            ],
            "stateMutability": "view",
            "type": "function"
        },
        {
            "inputs": [
                {
                    "internalType": "uint256",
                    "name": "",
                    "type": "uint256"
                }
            ],
            "name": "arrayOfRandoms",
            "outputs": [
                {
                    "internalType": "uint256",
                    "name": "",
                    "type": "uint256"
                }
            ],
            "stateMutability": "view",
            "type": "function"
        },
        {
            "inputs": [
                {
                    "internalType": "address",
                    "name": "account",
                    "type": "address"
                },
                {
                    "internalType": "uint256",
                    "name": "id",
                    "type": "uint256"
                }
            ],
            "name": "balanceOf",
            "outputs": [
                {
                    "internalType": "uint256",
                    "name": "",
                    "type": "uint256"
                }
            ],
            "stateMutability": "view",
            "type": "function"
        },
        {
            "inputs": [
                {
                    "internalType": "address[]",
                    "name": "accounts",
                    "type": "address[]"
                },
                {
                    "internalType": "uint256[]",
                    "name": "ids",
                    "type": "uint256[]"
                }
            ],
            "name": "balanceOfBatch",
            "outputs": [
                {
                    "internalType": "uint256[]",
                    "name": "",
                    "type": "uint256[]"
                }
            ],
            "stateMutability": "view",
            "type": "function"
        },
        {
            "inputs": [],
            "name": "endpointIdUint256Array",
            "outputs": [
                {
                    "internalType": "bytes32",
                    "name": "",
                    "type": "bytes32"
                }
            ],
            "stateMutability": "view",
            "type": "function"
        },
        {
            "inputs": [
                {
                    "internalType": "uint256",
                    "name": "id",
                    "type": "uint256"
                }
            ],
            "name": "exists",
            "outputs": [
                {
                    "internalType": "bool",
                    "name": "",
                    "type": "bool"
                }
            ],
            "stateMutability": "view",
            "type": "function"
        },
        {
            "inputs": [
                {
                    "internalType": "bytes32",
                    "name": "",
                    "type": "bytes32"
                }
            ],
            "name": "expectingRequestWithIdToBeFulfilled",
            "outputs": [
                {
                    "internalType": "bool",
                    "name": "",
                    "type": "bool"
                }
            ],
            "stateMutability": "view",
            "type": "function"
        },
        {
            "inputs": [
                {
                    "internalType": "bytes32",
                    "name": "requestId",
                    "type": "bytes32"
                },
                {
                    "internalType": "bytes",
                    "name": "data",
                    "type": "bytes"
                }
            ],
            "name": "fulfillUint256Array",
            "outputs": [],
            "stateMutability": "nonpayable",
            "type": "function"
        },
        {
            "inputs": [
                {
                    "internalType": "address",
                    "name": "account",
                    "type": "address"
                },
                {
                    "internalType": "address",
                    "name": "operator",
                    "type": "address"
                }
            ],
            "name": "isApprovedForAll",
            "outputs": [
                {
                    "internalType": "bool",
                    "name": "",
                    "type": "bool"
                }
            ],
            "stateMutability": "view",
            "type": "function"
        },
        {
            "inputs": [],
            "name": "letsGoFishing",
            "outputs": [],
            "stateMutability": "nonpayable",
            "type": "function"
        },
        {
            "inputs": [],
            "name": "name",
            "outputs": [
                {
                    "internalType": "string",
                    "name": "",
                    "type": "string"
                }
            ],
            "stateMutability": "pure",
            "type": "function"
        },
        {
            "inputs": [],
            "name": "owner",
            "outputs": [
                {
                    "internalType": "address",
                    "name": "",
                    "type": "address"
                }
            ],
            "stateMutability": "view",
            "type": "function"
        },
        {
            "inputs": [],
            "name": "pause",
            "outputs": [],
            "stateMutability": "nonpayable",
            "type": "function"
        },
        {
            "inputs": [],
            "name": "paused",
            "outputs": [
                {
                    "internalType": "bool",
                    "name": "",
                    "type": "bool"
                }
            ],
            "stateMutability": "view",
            "type": "function"
        },
        {
            "inputs": [],
            "name": "renounceOwnership",
            "outputs": [],
            "stateMutability": "nonpayable",
            "type": "function"
        },
        {
            "inputs": [
                {
                    "internalType": "uint256",
                    "name": "",
                    "type": "uint256"
                }
            ],
            "name": "rogsData",
            "outputs": [
                {
                    "internalType": "uint256",
                    "name": "",
                    "type": "uint256"
                }
            ],
            "stateMutability": "view",
            "type": "function"
        },
        {
            "inputs": [
                {
                    "internalType": "address",
                    "name": "from",
                    "type": "address"
                },
                {
                    "internalType": "address",
                    "name": "to",
                    "type": "address"
                },
                {
                    "internalType": "uint256[]",
                    "name": "ids",
                    "type": "uint256[]"
                },
                {
                    "internalType": "uint256[]",
                    "name": "amounts",
                    "type": "uint256[]"
                },
                {
                    "internalType": "bytes",
                    "name": "data",
                    "type": "bytes"
                }
            ],
            "name": "safeBatchTransferFrom",
            "outputs": [],
            "stateMutability": "nonpayable",
            "type": "function"
        },
        {
            "inputs": [
                {
                    "internalType": "address",
                    "name": "from",
                    "type": "address"
                },
                {
                    "internalType": "address",
                    "name": "to",
                    "type": "address"
                },
                {
                    "internalType": "uint256",
                    "name": "id",
                    "type": "uint256"
                },
                {
                    "internalType": "uint256",
                    "name": "amount",
                    "type": "uint256"
                },
                {
                    "internalType": "bytes",
                    "name": "data",
                    "type": "bytes"
                }
            ],
            "name": "safeTransferFrom",
            "outputs": [],
            "stateMutability": "nonpayable",
            "type": "function"
        },
        {
            "inputs": [
                {
                    "internalType": "address",
                    "name": "operator",
                    "type": "address"
                },
                {
                    "internalType": "bool",
                    "name": "approved",
                    "type": "bool"
                }
            ],
            "name": "setApprovalForAll",
            "outputs": [],
            "stateMutability": "nonpayable",
            "type": "function"
        },
        {
            "inputs": [
                {
                    "internalType": "address",
                    "name": "_airnode",
                    "type": "address"
                },
                {
                    "internalType": "bytes32",
                    "name": "_endpointIdUint256Array",
                    "type": "bytes32"
                },
                {
                    "internalType": "address",
                    "name": "_sponsorWallet",
                    "type": "address"
                }
            ],
            "name": "setRequestParameters",
            "outputs": [],
            "stateMutability": "nonpayable",
            "type": "function"
        },
        {
            "inputs": [
                {
                    "internalType": "string",
                    "name": "newuri",
                    "type": "string"
                }
            ],
            "name": "setURI",
            "outputs": [],
            "stateMutability": "nonpayable",
            "type": "function"
        },
        {
            "inputs": [],
            "name": "singleNumber",
            "outputs": [
                {
                    "internalType": "uint256",
                    "name": "",
                    "type": "uint256"
                }
            ],
            "stateMutability": "view",
            "type": "function"
        },
        {
            "inputs": [],
            "name": "sponsorWallet",
            "outputs": [
                {
                    "internalType": "address",
                    "name": "",
                    "type": "address"
                }
            ],
            "stateMutability": "view",
            "type": "function"
        },
        {
            "inputs": [
                {
                    "internalType": "bytes4",
                    "name": "interfaceId",
                    "type": "bytes4"
                }
            ],
            "name": "supportsInterface",
            "outputs": [
                {
                    "internalType": "bool",
                    "name": "",
                    "type": "bool"
                }
            ],
            "stateMutability": "view",
            "type": "function"
        },
        {
            "inputs": [],
            "name": "symbol",
            "outputs": [
                {
                    "internalType": "string",
                    "name": "",
                    "type": "string"
                }
            ],
            "stateMutability": "pure",
            "type": "function"
        },
        {
            "inputs": [
                {
                    "internalType": "uint256",
                    "name": "id",
                    "type": "uint256"
                }
            ],
            "name": "totalSupply",
            "outputs": [
                {
                    "internalType": "uint256",
                    "name": "",
                    "type": "uint256"
                }
            ],
            "stateMutability": "view",
            "type": "function"
        },
        {
            "inputs": [
                {
                    "internalType": "address",
                    "name": "newOwner",
                    "type": "address"
                }
            ],
            "name": "transferOwnership",
            "outputs": [],
            "stateMutability": "nonpayable",
            "type": "function"
        },
        {
            "inputs": [],
            "name": "unpause",
            "outputs": [],
            "stateMutability": "nonpayable",
            "type": "function"
        },
        {
            "inputs": [
                {
                    "internalType": "uint256",
                    "name": "_tokenId",
                    "type": "uint256"
                }
            ],
            "name": "uri",
            "outputs": [
                {
                    "internalType": "string",
                    "name": "",
                    "type": "string"
                }
            ],
            "stateMutability": "view",
            "type": "function"
        }
    ],
    "bytecode": "0x60a06040523480156200001157600080fd5b5060405162002d6b38038062002d6b833981016040819052620000349162000277565b6001600160a01b0385166080819052604051632b77c09f60e21b815230600482015260016024820152859185918591859182918b9163addf027c90604401600060405180830381600087803b1580156200008d57600080fd5b505af1158015620000a2573d6000803e3d6000fd5b5050505050620000b8816200013360201b60201c565b50620000c4336200014c565b6003805460ff60a01b19169055600580546001600160a01b038087166001600160a01b0319928316179092556006805486841690831617905560078054928516929091169190911790558051620001239060089060208401906200019e565b50505050505050505050620003de565b8051620001489060029060208401906200019e565b5050565b600380546001600160a01b038381166001600160a01b0319831681179093556040519116919082907f8be0079c531659141344cd1fd0a4f28419497f9722a3daafe3b4186f6b6457e090600090a35050565b828054620001ac90620003a1565b90600052602060002090601f016020900481019282620001d057600085556200021b565b82601f10620001eb57805160ff19168380011785556200021b565b828001600101855582156200021b579182015b828111156200021b578251825591602001919060010190620001fe565b50620002299291506200022d565b5090565b5b808211156200022957600081556001016200022e565b80516001600160a01b03811681146200025c57600080fd5b919050565b634e487b7160e01b600052604160045260246000fd5b600080600080600060a086880312156200029057600080fd5b6200029b8662000244565b94506020620002ac81880162000244565b9450620002bc6040880162000244565b9350620002cc6060880162000244565b60808801519093506001600160401b0380821115620002ea57600080fd5b818901915089601f830112620002ff57600080fd5b81518181111562000314576200031462000261565b604051601f8201601f19908116603f011681019083821181831017156200033f576200033f62000261565b816040528281528c868487010111156200035857600080fd5b600093505b828410156200037c57848401860151818501870152928501926200035d565b828411156200038e5760008684830101525b8096505050505050509295509295909350565b600181811c90821680620003b657607f821691505b60208210811415620003d857634e487b7160e01b600052602260045260246000fd5b50919050565b6080516129636200040860003960008181610358015281816105fc015261133001526129636000f3fe608060405234801561001057600080fd5b50600436106101e45760003560e01c806371bab6661161010f578063a22cb465116100a2578063e985e9c511610071578063e985e9c51461046a578063ea08f5fe146104a6578063f242432a146104ae578063f2fde38b146104c157600080fd5b8063a22cb46514610411578063a36ff4d814610424578063bd85b03914610437578063bf90fb4e1461045757600080fd5b8063851244f7116100de578063851244f7146103b65780638da5cb5b146103d957806395d89b41146103ea578063a19954af1461040857600080fd5b806371bab66614610353578063795d63a3146103925780637bdf25251461039b5780638456cb59146103ae57600080fd5b80632a20086a116101875780634f558e79116101565780634f558e791461030f5780635ba158a1146103315780635c975abb14610339578063715018a61461034b57600080fd5b80632a20086a146102b45780632eb2c2d6146102d45780633f4ba83a146102e75780634e1273f4146102ef57600080fd5b8063039863b4116101c3578063039863b41461024757806306fdde031461025a5780630d31d52a1461028e5780630e89341c146102a157600080fd5b8062fdd58e146101e957806301ffc9a71461020f57806302fe530514610232575b600080fd5b6101fc6101f7366004611d8b565b6104d4565b6040519081526020015b60405180910390f35b61022261021d366004611dcb565b61056a565b6040519015158152602001610206565b610245610240366004611e8e565b6105bc565b005b6101fc610255366004611ede565b6105d0565b60408051808201909152600f81526e4f6365616e2054726561737572657360881b60208201525b6040516102069190611f53565b61024561029c366004611f66565b6105f1565b6102816102af366004611ede565b6107bc565b6101fc6102c2366004611ede565b60096020526000908152604090205481565b6102456102e2366004612095565b6107f0565b61024561083c565b6103026102fd36600461213e565b61084e565b6040516102069190612243565b61022261031d366004611ede565b600090815260046020526040902054151590565b610281610977565b600354600160a01b900460ff16610222565b610245610a05565b61037a7f000000000000000000000000000000000000000000000000000000000000000081565b6040516001600160a01b039091168152602001610206565b6101fc600d5481565b6102456103a9366004612256565b610a17565b610245610a53565b6102226103c4366004611ede565b600f6020526000908152604090205460ff1681565b6003546001600160a01b031661037a565b60408051808201909152600281526113d560f21b6020820152610281565b6101fc600b5481565b61024561041f366004612292565b610a63565b600a5461037a906001600160a01b031681565b6101fc610445366004611ede565b60009081526004602052604090205490565b600c5461037a906001600160a01b031681565b6102226104783660046122ce565b6001600160a01b03918216600090815260016020908152604080832093909416825291909152205460ff1690565b610245610a72565b6102456104bc366004612301565b610cc9565b6102456104cf366004612365565b610d0e565b60006001600160a01b0383166105445760405162461bcd60e51b815260206004820152602a60248201527f455243313135353a2061646472657373207a65726f206973206e6f742061207660448201526930b634b21037bbb732b960b11b60648201526084015b60405180910390fd5b506000908152602081815260408083206001600160a01b03949094168352929052205490565b60006001600160e01b03198216636cdb3d1360e11b148061059b57506001600160e01b031982166303a24d0760e21b145b806105b657506301ffc9a760e01b6001600160e01b03198316145b92915050565b6105c4610d84565b6105cd81610dde565b50565b600e81815481106105e057600080fd5b600091825260209091200154905081565b336001600160a01b037f000000000000000000000000000000000000000000000000000000000000000016146106625760405162461bcd60e51b8152602060048201526016602482015275043616c6c6572206e6f74204169726e6f6465205252560541b604482015260640161053b565b6000838152600f602052604090205460ff166106b75760405162461bcd60e51b81526020600482015260146024820152732932b8bab2b9ba1024a2103737ba1035b737bbb760611b604482015260640161053b565b6000838152600f60205260408120805460ff191690556106d982840184612380565b905060005b81518110156107475760058282815181106106fb576106fb6123b4565b602002602001015161070d91906123ca565b610718906001612402565b82828151811061072a5761072a6123b4565b60209081029190910101528061073f8161241a565b9150506106de565b50805161075b90600e906020840190611c9c565b5060008481526010602052604090205461077e906001600160a01b031682610df1565b837f47b5f552f55573ad9b766ef18360830d3e90ecdfbef4c7bea49379a0ce64913c826040516107ae9190612243565b60405180910390a250505050565b606060086107c983610ed1565b6040516020016107da92919061248c565b6040516020818303038152906040529050919050565b6001600160a01b03851633148061080c575061080c8533610478565b6108285760405162461bcd60e51b815260040161053b90612547565b6108358585858585610f65565b5050505050565b610844610d84565b61084c61110f565b565b606081518351146108b35760405162461bcd60e51b815260206004820152602960248201527f455243313135353a206163636f756e747320616e6420696473206c656e677468604482015268040dad2e6dac2e8c6d60bb1b606482015260840161053b565b600083516001600160401b038111156108ce576108ce611def565b6040519080825280602002602001820160405280156108f7578160200160208202803683370190505b50905060005b845181101561096f5761094285828151811061091b5761091b6123b4565b6020026020010151858381518110610935576109356123b4565b60200260200101516104d4565b828281518110610954576109546123b4565b60209081029190910101526109688161241a565b90506108fd565b509392505050565b6008805461098490612435565b80601f01602080910402602001604051908101604052809291908181526020018280546109b090612435565b80156109fd5780601f106109d2576101008083540402835291602001916109fd565b820191906000526020600020905b8154815290600101906020018083116109e057829003601f168201915b505050505081565b610a0d610d84565b61084c6000611164565b610a1f610d84565b600a80546001600160a01b039485166001600160a01b031991821617909155600b92909255600c8054919093169116179055565b610a5b610d84565b61084c6111b6565b610a6e3383836111f9565b5050565b6006546040516370a0823160e01b81523360048201526000916001600160a01b0316906370a082319060240160206040518083038186803b158015610ab657600080fd5b505afa158015610aca573d6000803e3d6000fd5b505050506040513d601f19601f82011682018060405250810190610aee9190612595565b6007546040516370a0823160e01b81523360048201529192506000916001600160a01b03909116906370a082319060240160206040518083038186803b158015610b3757600080fd5b505afa158015610b4b573d6000803e3d6000fd5b505050506040513d601f19601f82011682018060405250810190610b6f9190612595565b9050600080610b8084610e106125ae565b905062093a80811115610b9357506207e9005b60005b83811015610c8057600754604051632f745c5960e01b8152336004820152602481018390526000916001600160a01b031690632f745c599060440160206040518083038186803b158015610be957600080fd5b505afa158015610bfd573d6000803e3d6000fd5b505050506040513d601f19601f82011682018060405250810190610c219190612595565b600081815260096020526040902054909150421115610c6d57610c45600185612402565b935082610c53426078612402565b610c5d91906125cd565b6000828152600960205260409020555b5080610c788161241a565b915050610b96565b50610c8a826112da565b60408051338152602081018490527feb3ea98e430602c0da76a9153fe4b914b89cf849494e43e84093597a2b2a9f2d910160405180910390a150505050565b6001600160a01b038516331480610ce55750610ce58533610478565b610d015760405162461bcd60e51b815260040161053b90612547565b6108358585858585611443565b610d16610d84565b6001600160a01b038116610d7b5760405162461bcd60e51b815260206004820152602660248201527f4f776e61626c653a206e6577206f776e657220697320746865207a65726f206160448201526564647265737360d01b606482015260840161053b565b6105cd81611164565b6003546001600160a01b0316331461084c5760405162461bcd60e51b815260206004820181905260248201527f4f776e61626c653a2063616c6c6572206973206e6f7420746865206f776e6572604482015260640161053b565b8051610a6e906002906020840190611ce7565b600081516001600160401b03811115610e0c57610e0c611def565b604051908082528060200260200182016040528015610e35578160200160208202803683370190505b50905060005b8251811015610e75576001828281518110610e5857610e586123b4565b602090810291909101015280610e6d8161241a565b915050610e3b565b50610e918383836040518060200160405280600081525061157b565b7f4ec9a0e16aa917172939a0a7b40996d8b586e12fba2913ea46d2282023b417f2838383604051610ec4939291906125e4565b60405180910390a1505050565b60606000610ede8361170f565b60010190506000816001600160401b03811115610efd57610efd611def565b6040519080825280601f01601f191660200182016040528015610f27576020820181803683370190505b5090508181016020015b600019016f181899199a1a9b1b9c1cb0b131b232b360811b600a86061a8153600a8504945084610f605761096f565b610f31565b8151835114610f865760405162461bcd60e51b815260040161053b90612624565b6001600160a01b038416610fac5760405162461bcd60e51b815260040161053b9061266c565b33610fbb8187878787876117e7565b60005b84518110156110a1576000858281518110610fdb57610fdb6123b4565b602002602001015190506000858381518110610ff957610ff96123b4565b602090810291909101810151600084815280835260408082206001600160a01b038e1683529093529190912054909150818110156110495760405162461bcd60e51b815260040161053b906126b1565b6000838152602081815260408083206001600160a01b038e8116855292528083208585039055908b16825281208054849290611086908490612402565b925050819055505050508061109a9061241a565b9050610fbe565b50846001600160a01b0316866001600160a01b0316826001600160a01b03167f4a39dc06d4c0dbc64b70af90fd698a233a518aa5d07e595d983b8c0526c8f7fb87876040516110f19291906126fb565b60405180910390a46111078187878787876117fd565b505050505050565b611117611971565b6003805460ff60a01b191690557f5db9ee0a495bf2e6ff9c91a7834c1ba4fdd244a5e8aa4e537bd38aeae4b073aa335b6040516001600160a01b03909116815260200160405180910390a1565b600380546001600160a01b038381166001600160a01b0319831681179093556040519116919082907f8be0079c531659141344cd1fd0a4f28419497f9722a3daafe3b4186f6b6457e090600090a35050565b6111be6119c1565b6003805460ff60a01b1916600160a01b1790557f62e78cea01bee320cd4e420270b5ea74000d11b0c9f74754ebdbfc544b05a2586111473390565b816001600160a01b0316836001600160a01b0316141561126d5760405162461bcd60e51b815260206004820152602960248201527f455243313135353a2073657474696e6720617070726f76616c20737461747573604482015268103337b91039b2b63360b91b606482015260840161053b565b6001600160a01b03838116600081815260016020908152604080832094871680845294825291829020805460ff191686151590811790915591519182527f17307eab39ab6107e8899845ad3d59bd9653f200f220920489ca2b5937696c31910160405180910390a3505050565b600a54600b54600c546040805161317560f01b60208201526373697a6560e01b818301526060808201879052825180830390910181526080820192839052636e6be03f60e01b9092526000946001600160a01b037f0000000000000000000000000000000000000000000000000000000000000000811695636e6be03f9561137b959383169491933093909116918391630698ea9560e11b91608401612720565b602060405180830381600087803b15801561139557600080fd5b505af11580156113a9573d6000803e3d6000fd5b505050506040513d601f19601f820116820180604052508101906113cd9190612595565b6000818152600f60209081526040808320805460ff1916600117905560109091529081902080546001600160a01b031916331790555190915081907f6529de56040715a55618ee5797cd3bc856b65ded8fee01e2a24c8481de9e2aaf906114379085815260200190565b60405180910390a25050565b6001600160a01b0384166114695760405162461bcd60e51b815260040161053b9061266c565b33600061147585611a0e565b9050600061148285611a0e565b90506114928389898585896117e7565b6000868152602081815260408083206001600160a01b038c168452909152902054858110156114d35760405162461bcd60e51b815260040161053b906126b1565b6000878152602081815260408083206001600160a01b038d8116855292528083208985039055908a16825281208054889290611510908490612402565b909155505060408051888152602081018890526001600160a01b03808b16928c821692918816917fc3d58168c5ae7397731d063d5bbf3d657854427343f4c083240f7aacaa2d0f62910160405180910390a4611570848a8a8a8a8a611a59565b505050505050505050565b6001600160a01b0384166115db5760405162461bcd60e51b815260206004820152602160248201527f455243313135353a206d696e7420746f20746865207a65726f206164647265736044820152607360f81b606482015260840161053b565b81518351146115fc5760405162461bcd60e51b815260040161053b90612624565b3361160c816000878787876117e7565b60005b84518110156116a75783818151811061162a5761162a6123b4565b6020026020010151600080878481518110611647576116476123b4565b602002602001015181526020019081526020016000206000886001600160a01b03166001600160a01b03168152602001908152602001600020600082825461168f9190612402565b9091555081905061169f8161241a565b91505061160f565b50846001600160a01b031660006001600160a01b0316826001600160a01b03167f4a39dc06d4c0dbc64b70af90fd698a233a518aa5d07e595d983b8c0526c8f7fb87876040516116f89291906126fb565b60405180910390a4610835816000878787876117fd565b60008072184f03e93ff9f4daa797ed6e38ed64bf6a1f0160401b831061174e5772184f03e93ff9f4daa797ed6e38ed64bf6a1f0160401b830492506040015b6d04ee2d6d415b85acef8100000000831061177a576d04ee2d6d415b85acef8100000000830492506020015b662386f26fc10000831061179857662386f26fc10000830492506010015b6305f5e10083106117b0576305f5e100830492506008015b61271083106117c457612710830492506004015b606483106117d6576064830492506002015b600a83106105b65760010192915050565b6117ef6119c1565b611107868686868686611b23565b6001600160a01b0384163b156111075760405163bc197c8160e01b81526001600160a01b0385169063bc197c81906118419089908990889088908890600401612780565b602060405180830381600087803b15801561185b57600080fd5b505af192505050801561188b575060408051601f3d908101601f19168201909252611888918101906127de565b60015b611938576118976127fb565b806308c379a014156118d157506118ac612817565b806118b757506118d3565b8060405162461bcd60e51b815260040161053b9190611f53565b505b60405162461bcd60e51b815260206004820152603460248201527f455243313135353a207472616e7366657220746f206e6f6e2d455243313135356044820152732932b1b2b4bb32b91034b6b83632b6b2b73a32b960611b606482015260840161053b565b6001600160e01b0319811663bc197c8160e01b146119685760405162461bcd60e51b815260040161053b906128a0565b50505050505050565b600354600160a01b900460ff1661084c5760405162461bcd60e51b815260206004820152601460248201527314185d5cd8589b194e881b9bdd081c185d5cd95960621b604482015260640161053b565b600354600160a01b900460ff161561084c5760405162461bcd60e51b815260206004820152601060248201526f14185d5cd8589b194e881c185d5cd95960821b604482015260640161053b565b60408051600180825281830190925260609160009190602080830190803683370190505090508281600081518110611a4857611a486123b4565b602090810291909101015292915050565b6001600160a01b0384163b156111075760405163f23a6e6160e01b81526001600160a01b0385169063f23a6e6190611a9d90899089908890889088906004016128e8565b602060405180830381600087803b158015611ab757600080fd5b505af1925050508015611ae7575060408051601f3d908101601f19168201909252611ae4918101906127de565b60015b611af3576118976127fb565b6001600160e01b0319811663f23a6e6160e01b146119685760405162461bcd60e51b815260040161053b906128a0565b6001600160a01b038516611baa5760005b8351811015611ba857828181518110611b4f57611b4f6123b4565b602002602001015160046000868481518110611b6d57611b6d6123b4565b602002602001015181526020019081526020016000206000828254611b929190612402565b90915550611ba190508161241a565b9050611b34565b505b6001600160a01b0384166111075760005b8351811015611968576000848281518110611bd857611bd86123b4565b602002602001015190506000848381518110611bf657611bf66123b4565b6020026020010151905060006004600084815260200190815260200160002054905081811015611c795760405162461bcd60e51b815260206004820152602860248201527f455243313135353a206275726e20616d6f756e74206578636565647320746f74604482015267616c537570706c7960c01b606482015260840161053b565b60009283526004602052604090922091039055611c958161241a565b9050611bbb565b828054828255906000526020600020908101928215611cd7579160200282015b82811115611cd7578251825591602001919060010190611cbc565b50611ce3929150611d5a565b5090565b828054611cf390612435565b90600052602060002090601f016020900481019282611d155760008555611cd7565b82601f10611d2e57805160ff1916838001178555611cd7565b82800160010185558215611cd75791820182811115611cd7578251825591602001919060010190611cbc565b5b80821115611ce35760008155600101611d5b565b80356001600160a01b0381168114611d8657600080fd5b919050565b60008060408385031215611d9e57600080fd5b611da783611d6f565b946020939093013593505050565b6001600160e01b0319811681146105cd57600080fd5b600060208284031215611ddd57600080fd5b8135611de881611db5565b9392505050565b634e487b7160e01b600052604160045260246000fd5b601f8201601f191681016001600160401b0381118282101715611e2a57611e2a611def565b6040525050565b60006001600160401b03831115611e4a57611e4a611def565b604051611e61601f8501601f191660200182611e05565b809150838152848484011115611e7657600080fd5b83836020830137600060208583010152509392505050565b600060208284031215611ea057600080fd5b81356001600160401b03811115611eb657600080fd5b8201601f81018413611ec757600080fd5b611ed684823560208401611e31565b949350505050565b600060208284031215611ef057600080fd5b5035919050565b60005b83811015611f12578181015183820152602001611efa565b83811115611f21576000848401525b50505050565b60008151808452611f3f816020860160208601611ef7565b601f01601f19169290920160200192915050565b602081526000611de86020830184611f27565b600080600060408486031215611f7b57600080fd5b8335925060208401356001600160401b0380821115611f9957600080fd5b818601915086601f830112611fad57600080fd5b813581811115611fbc57600080fd5b876020828501011115611fce57600080fd5b6020830194508093505050509250925092565b60006001600160401b03821115611ffa57611ffa611def565b5060051b60200190565b600082601f83011261201557600080fd5b8135602061202282611fe1565b60405161202f8282611e05565b83815260059390931b850182019282810191508684111561204f57600080fd5b8286015b8481101561206a5780358352918301918301612053565b509695505050505050565b600082601f83011261208657600080fd5b611de883833560208501611e31565b600080600080600060a086880312156120ad57600080fd5b6120b686611d6f565b94506120c460208701611d6f565b935060408601356001600160401b03808211156120e057600080fd5b6120ec89838a01612004565b9450606088013591508082111561210257600080fd5b61210e89838a01612004565b9350608088013591508082111561212457600080fd5b5061213188828901612075565b9150509295509295909350565b6000806040838503121561215157600080fd5b82356001600160401b038082111561216857600080fd5b818501915085601f83011261217c57600080fd5b8135602061218982611fe1565b6040516121968282611e05565b83815260059390931b85018201928281019150898411156121b657600080fd5b948201945b838610156121db576121cc86611d6f565b825294820194908201906121bb565b965050860135925050808211156121f157600080fd5b506121fe85828601612004565b9150509250929050565b600081518084526020808501945080840160005b838110156122385781518752958201959082019060010161221c565b509495945050505050565b602081526000611de86020830184612208565b60008060006060848603121561226b57600080fd5b61227484611d6f565b92506020840135915061228960408501611d6f565b90509250925092565b600080604083850312156122a557600080fd5b6122ae83611d6f565b9150602083013580151581146122c357600080fd5b809150509250929050565b600080604083850312156122e157600080fd5b6122ea83611d6f565b91506122f860208401611d6f565b90509250929050565b600080600080600060a0868803121561231957600080fd5b61232286611d6f565b945061233060208701611d6f565b9350604086013592506060860135915060808601356001600160401b0381111561235957600080fd5b61213188828901612075565b60006020828403121561237757600080fd5b611de882611d6f565b60006020828403121561239257600080fd5b81356001600160401b038111156123a857600080fd5b611ed684828501612004565b634e487b7160e01b600052603260045260246000fd5b6000826123e757634e487b7160e01b600052601260045260246000fd5b500690565b634e487b7160e01b600052601160045260246000fd5b60008219821115612415576124156123ec565b500190565b600060001982141561242e5761242e6123ec565b5060010190565b600181811c9082168061244957607f821691505b6020821081141561246a57634e487b7160e01b600052602260045260246000fd5b50919050565b60008151612482818560208601611ef7565b9290920192915050565b600080845481600182811c9150808316806124a857607f831692505b60208084108214156124c857634e487b7160e01b86526022600452602486fd5b8180156124dc57600181146124ed5761251a565b60ff1986168952848901965061251a565b60008b81526020902060005b868110156125125781548b8201529085019083016124f9565b505084890196505b50505050505061253e61252d8286612470565b64173539b7b760d91b815260050190565b95945050505050565b6020808252602e908201527f455243313135353a2063616c6c6572206973206e6f7420746f6b656e206f776e60408201526d195c881bdc88185c1c1c9bdd995960921b606082015260800190565b6000602082840312156125a757600080fd5b5051919050565b60008160001904831182151516156125c8576125c86123ec565b500290565b6000828210156125df576125df6123ec565b500390565b6001600160a01b038416815260606020820181905260009061260890830185612208565b828103604084015261261a8185612208565b9695505050505050565b60208082526028908201527f455243313135353a2069647320616e6420616d6f756e7473206c656e677468206040820152670dad2e6dac2e8c6d60c31b606082015260800190565b60208082526025908201527f455243313135353a207472616e7366657220746f20746865207a65726f206164604082015264647265737360d81b606082015260800190565b6020808252602a908201527f455243313135353a20696e73756666696369656e742062616c616e636520666f60408201526939103a3930b739b332b960b11b606082015260800190565b60408152600061270e6040830185612208565b828103602084015261253e8185612208565b6001600160a01b0388811682526020820188905286811660408301528581166060830152841660808201526001600160e01b0319831660a082015260e060c0820181905260009061277390830184611f27565b9998505050505050505050565b6001600160a01b0386811682528516602082015260a0604082018190526000906127ac90830186612208565b82810360608401526127be8186612208565b905082810360808401526127d28185611f27565b98975050505050505050565b6000602082840312156127f057600080fd5b8151611de881611db5565b600060033d11156128145760046000803e5060005160e01c5b90565b600060443d10156128255790565b6040516003193d81016004833e81513d6001600160401b03816024840111818411171561285457505050505090565b828501915081518181111561286c5750505050505090565b843d87010160208285010111156128865750505050505090565b61289560208286010187611e05565b509095945050505050565b60208082526028908201527f455243313135353a204552433131353552656365697665722072656a656374656040820152676420746f6b656e7360c01b606082015260800190565b6001600160a01b03868116825285166020820152604081018490526060810183905260a06080820181905260009061292290830184611f27565b97965050505050505056fea26469706673582212208f19b0714c680474dc783ac48bf2e17df8d5ba60a133531e646c43a7c2915bbb64736f6c63430008090033",
    "linkReferences": {},
    "deployedLinkReferences": {}
}